{
  "contractName": "ERC20",
  "abi": [
    {
      "anonymous": false,
      "inputs": [
        {
          "indexed": false,
          "internalType": "address",
          "name": "owner",
          "type": "address"
        },
        {
          "indexed": false,
          "internalType": "address",
          "name": "spender",
          "type": "address"
        },
        {
          "indexed": false,
          "internalType": "uint256",
          "name": "value",
          "type": "uint256"
        }
      ],
      "name": "Approval",
      "type": "event"
    },
    {
      "anonymous": false,
      "inputs": [
        {
          "indexed": false,
          "internalType": "address",
          "name": "from",
          "type": "address"
        },
        {
          "indexed": false,
          "internalType": "address",
          "name": "to",
          "type": "address"
        },
        {
          "indexed": false,
          "internalType": "uint256",
          "name": "value",
          "type": "uint256"
        }
      ],
      "name": "Transfer",
      "type": "event"
    },
    {
      "inputs": [
        {
          "internalType": "address",
          "name": "",
          "type": "address"
        },
        {
          "internalType": "address",
          "name": "",
          "type": "address"
        }
      ],
      "name": "allowance",
      "outputs": [
        {
          "internalType": "uint256",
          "name": "",
          "type": "uint256"
        }
      ],
      "stateMutability": "view",
      "type": "function"
    },
    {
      "inputs": [
        {
          "internalType": "address",
          "name": "",
          "type": "address"
        }
      ],
      "name": "balances",
      "outputs": [
        {
          "internalType": "uint256",
          "name": "",
          "type": "uint256"
        }
      ],
      "stateMutability": "view",
      "type": "function"
    },
    {
      "inputs": [],
      "name": "decimals",
      "outputs": [
        {
          "internalType": "uint256",
          "name": "",
          "type": "uint256"
        }
      ],
      "stateMutability": "view",
      "type": "function"
    },
    {
      "inputs": [],
      "name": "name",
      "outputs": [
        {
          "internalType": "string",
          "name": "",
          "type": "string"
        }
      ],
      "stateMutability": "view",
      "type": "function"
    },
    {
      "inputs": [],
      "name": "symbol",
      "outputs": [
        {
          "internalType": "string",
          "name": "",
          "type": "string"
        }
      ],
      "stateMutability": "view",
      "type": "function"
    },
    {
      "inputs": [],
      "name": "totalSupply",
      "outputs": [
        {
          "internalType": "uint256",
          "name": "",
          "type": "uint256"
        }
      ],
      "stateMutability": "view",
      "type": "function"
    },
    {
      "inputs": [
        {
          "internalType": "address",
          "name": "account",
          "type": "address"
        }
      ],
      "name": "balanceOf",
      "outputs": [
        {
          "internalType": "uint256",
          "name": "",
          "type": "uint256"
        }
      ],
      "stateMutability": "view",
      "type": "function"
    },
    {
      "inputs": [
        {
          "internalType": "address",
          "name": "recipient",
          "type": "address"
        },
        {
          "internalType": "uint256",
          "name": "amount",
          "type": "uint256"
        }
      ],
      "name": "transfer",
      "outputs": [
        {
          "internalType": "bool",
          "name": "",
          "type": "bool"
        }
      ],
      "stateMutability": "nonpayable",
      "type": "function"
    },
    {
      "inputs": [
        {
          "internalType": "address",
          "name": "spender",
          "type": "address"
        },
        {
          "internalType": "uint256",
          "name": "amount",
          "type": "uint256"
        }
      ],
      "name": "approve",
      "outputs": [
        {
          "internalType": "bool",
          "name": "",
          "type": "bool"
        }
      ],
      "stateMutability": "nonpayable",
      "type": "function"
    },
    {
      "inputs": [
        {
          "internalType": "address",
          "name": "sender",
          "type": "address"
        },
        {
          "internalType": "address",
          "name": "recipient",
          "type": "address"
        },
        {
          "internalType": "uint256",
          "name": "amount",
          "type": "uint256"
        }
      ],
      "name": "transferFrom",
      "outputs": [
        {
          "internalType": "bool",
          "name": "",
          "type": "bool"
        }
      ],
      "stateMutability": "nonpayable",
      "type": "function"
    },
    {
      "inputs": [
        {
          "internalType": "uint256",
          "name": "amount",
          "type": "uint256"
        }
      ],
      "name": "burn",
      "outputs": [],
      "stateMutability": "nonpayable",
      "type": "function"
    }
  ],
  "bytecode": "0x6080604052601260025534801561001557600080fd5b50610cd0806100256000396000f3fe608060405234801561001057600080fd5b50600436106100a95760003560e01c8063313ce56711610071578063313ce5671461017a57806342966c681461019857806370a08231146101b457806395d89b41146101e4578063a9059cbb14610202578063dd62ed3e14610232576100a9565b806306fdde03146100ae578063095ea7b3146100cc57806318160ddd146100fc57806323b872dd1461011a57806327e235e31461014a575b600080fd5b6100b6610262565b6040516100c39190610915565b60405180910390f35b6100e660048036038101906100e191906109d0565b6102f0565b6040516100f39190610a2b565b60405180910390f35b6101046103b4565b6040516101119190610a55565b60405180910390f35b610134600480360381019061012f9190610a70565b6103ba565b6040516101419190610a2b565b60405180910390f35b610164600480360381019061015f9190610ac3565b6105ca565b6040516101719190610a55565b60405180910390f35b6101826105e2565b60405161018f9190610a55565b60405180910390f35b6101b260048036038101906101ad9190610af0565b6105e8565b005b6101ce60048036038101906101c99190610ac3565b610696565b6040516101db9190610a55565b60405180910390f35b6101ec6106df565b6040516101f99190610915565b60405180910390f35b61021c600480360381019061021791906109d0565b61076d565b6040516102299190610a2b565b60405180910390f35b61024c60048036038101906102479190610b1d565b610860565b6040516102599190610a55565b60405180910390f35b6000805461026f90610b8c565b80601f016020809104026020016040519081016040528092919081815260200182805461029b90610b8c565b80156102e85780601f106102bd576101008083540402835291602001916102e8565b820191906000526020600020905b8154815290600101906020018083116102cb57829003601f168201915b505050505081565b600081600560003373ffffffffffffffffffffffffffffffffffffffff1673ffffffffffffffffffffffffffffffffffffffff16815260200190815260200160002060008573ffffffffffffffffffffffffffffffffffffffff1673ffffffffffffffffffffffffffffffffffffffff168152602001908152602001600020819055507f8c5be1e5ebec7d5bd14f71427d1e84f3dd0314c0f7b2291e5b200ac8c7c3b9253384846040516103a693929190610bcc565b60405180910390a192915050565b60035481565b600081600560008673ffffffffffffffffffffffffffffffffffffffff1673ffffffffffffffffffffffffffffffffffffffff16815260200190815260200160002060003373ffffffffffffffffffffffffffffffffffffffff1673ffffffffffffffffffffffffffffffffffffffff16815260200190815260200160002054101561044557600080fd5b81600560008673ffffffffffffffffffffffffffffffffffffffff1673ffffffffffffffffffffffffffffffffffffffff16815260200190815260200160002060003373ffffffffffffffffffffffffffffffffffffffff1673ffffffffffffffffffffffffffffffffffffffff16815260200190815260200160002060008282546104d19190610c32565b9250508190555081600460008673ffffffffffffffffffffffffffffffffffffffff1673ffffffffffffffffffffffffffffffffffffffff16815260200190815260200160002060008282546105279190610c32565b9250508190555081600460008573ffffffffffffffffffffffffffffffffffffffff1673ffffffffffffffffffffffffffffffffffffffff168152602001908152602001600020600082825461057d9190610c66565b925050819055507fddf252ad1be2c89b69c2b068fc378daa952ba7f163c4a11628f55a4df523b3ef8484846040516105b793929190610bcc565b60405180910390a1600190509392505050565b60046020528060005260406000206000915090505481565b60025481565b80600460003373ffffffffffffffffffffffffffffffffffffffff1673ffffffffffffffffffffffffffffffffffffffff16815260200190815260200160002060008282546106379190610c32565b9250508190555080600360008282546106509190610c32565b925050819055507fddf252ad1be2c89b69c2b068fc378daa952ba7f163c4a11628f55a4df523b3ef3360008360405161068b93929190610bcc565b60405180910390a150565b6000600460008373ffffffffffffffffffffffffffffffffffffffff1673ffffffffffffffffffffffffffffffffffffffff168152602001908152602001600020549050919050565b600180546106ec90610b8c565b80601f016020809104026020016040519081016040528092919081815260200182805461071890610b8c565b80156107655780601f1061073a57610100808354040283529160200191610765565b820191906000526020600020905b81548152906001019060200180831161074857829003601f168201915b505050505081565b600081600460003373ffffffffffffffffffffffffffffffffffffffff1673ffffffffffffffffffffffffffffffffffffffff16815260200190815260200160002060008282546107be9190610c32565b9250508190555081600460008573ffffffffffffffffffffffffffffffffffffffff1673ffffffffffffffffffffffffffffffffffffffff16815260200190815260200160002060008282546108149190610c66565b925050819055507fddf252ad1be2c89b69c2b068fc378daa952ba7f163c4a11628f55a4df523b3ef33848460405161084e93929190610bcc565b60405180910390a16001905092915050565b6005602052816000526040600020602052806000526040600020600091509150505481565b600081519050919050565b600082825260208201905092915050565b60005b838110156108bf5780820151818401526020810190506108a4565b60008484015250505050565b6000601f19601f8301169050919050565b60006108e782610885565b6108f18185610890565b93506109018185602086016108a1565b61090a816108cb565b840191505092915050565b6000602082019050818103600083015261092f81846108dc565b905092915050565b600080fd5b600073ffffffffffffffffffffffffffffffffffffffff82169050919050565b60006109678261093c565b9050919050565b6109778161095c565b811461098257600080fd5b50565b6000813590506109948161096e565b92915050565b6000819050919050565b6109ad8161099a565b81146109b857600080fd5b50565b6000813590506109ca816109a4565b92915050565b600080604083850312156109e7576109e6610937565b5b60006109f585828601610985565b9250506020610a06858286016109bb565b9150509250929050565b60008115159050919050565b610a2581610a10565b82525050565b6000602082019050610a406000830184610a1c565b92915050565b610a4f8161099a565b82525050565b6000602082019050610a6a6000830184610a46565b92915050565b600080600060608486031215610a8957610a88610937565b5b6000610a9786828701610985565b9350506020610aa886828701610985565b9250506040610ab9868287016109bb565b9150509250925092565b600060208284031215610ad957610ad8610937565b5b6000610ae784828501610985565b91505092915050565b600060208284031215610b0657610b05610937565b5b6000610b14848285016109bb565b91505092915050565b60008060408385031215610b3457610b33610937565b5b6000610b4285828601610985565b9250506020610b5385828601610985565b9150509250929050565b7f4e487b7100000000000000000000000000000000000000000000000000000000600052602260045260246000fd5b60006002820490506001821680610ba457607f821691505b602082108103610bb757610bb6610b5d565b5b50919050565b610bc68161095c565b82525050565b6000606082019050610be16000830186610bbd565b610bee6020830185610bbd565b610bfb6040830184610a46565b949350505050565b7f4e487b7100000000000000000000000000000000000000000000000000000000600052601160045260246000fd5b6000610c3d8261099a565b9150610c488361099a565b9250828203905081811115610c6057610c5f610c03565b5b92915050565b6000610c718261099a565b9150610c7c8361099a565b9250828201905080821115610c9457610c93610c03565b5b9291505056fea264697066735822122056996358220ceb6ff3ae05ab74474897629824a1fd1474c04690fc5cdbbf675764736f6c63430008110033",
  "immutableReferences": {},
  "source": "// SPDX-License-Identifier: MIT\r\npragma solidity ^0.8.17;\r\n\r\ncontract ERC20 {\r\n  //  \r\n  string public name; //  \r\n  string public symbol; //  \r\n  uint public decimals = 18; //  \r\n\r\n  uint public totalSupply; //  \r\n  //   address (40  20byte)  uint,  balances\r\n  mapping(address => uint) public balances;\r\n  //   \r\n  //  address    address,  uint  \r\n  //    allowance\r\n  mapping(address=>mapping(address=>uint)) public allowance;\r\n  /*\r\n  \r\n  const allowance = {\r\n    \"3  \" : {\r\n      \"1  \" : 100\r\n      \"2  \" : 200\r\n    },\r\n    \"2  \" : {\r\n      \"3  \" : 200\r\n      \"4  \" : 200\r\n      \"5  \" : 200\r\n    },\r\n  }\r\n  allowance   3  2  200   \r\n    . 2  3  200     \r\n  2  200      3       .\r\n\r\n    \r\n  */\r\n\r\n\r\n\r\n  //   \r\n  // external       \r\n  //      .(  )\r\n  //       \r\n  function balanceOf(address account) view external returns (uint) {\r\n    return balances[account];\r\n  }\r\n\r\n  //   \r\n  function transfer(address recipient, uint amount) external returns (bool) {\r\n    balances[msg.sender] -= amount;\r\n    balances[recipient] += amount;\r\n\r\n    // Transfer     \r\n    //    \r\n    emit Transfer(msg.sender,recipient,amount);\r\n    return true;\r\n  }\r\n\r\n  function approve(address spender, uint amount) external returns (bool) {\r\n    allowance[msg.sender][spender] = amount;\r\n\r\n    // Approval     \r\n    emit Approval(msg.sender, spender,amount);\r\n  }\r\n\r\n  function transferFrom(address sender, address recipient, uint amount) external returns (bool) {\r\n    // \r\n    require(allowance[sender][msg.sender] >= amount);\r\n\r\n    allowance[sender][msg.sender] -= amount;\r\n    balances[sender] -= amount;\r\n    balances[recipient] += amount;\r\n    emit Transfer(sender, recipient, amount);\r\n    return true;\r\n\r\n    // sender    \r\n    // msg.sender : transferFrom         \r\n\r\n  }\r\n\r\n  // internal :         \r\n  // private       .\r\n  \r\n  //    CA      .\r\n  function mint(uint amount) internal {\r\n    balances[msg.sender] += amount;\r\n    totalSupply += amount;\r\n    // address(0) from    null  \r\n    emit Transfer(address(0), msg.sender, amount);\r\n  }\r\n\r\n  //    ()\r\n  function burn(uint amount) external {\r\n    balances[msg.sender] -= amount;\r\n    totalSupply -= amount;\r\n    // addree(0) to   null\r\n    emit Transfer(msg.sender, address(0), amount);\r\n  }\r\n\r\n  //   \r\n  event Transfer(address from, address to, uint value);\r\n  event Approval(address owner, address spender, uint value);\r\n}",
  "sourcePath": "C:\\Users\\KGA_019\\Desktop\\Solidity_Prac\\221202\\contracts\\ERC20.sol",
  "compiler": {
    "name": "solc",
    "version": "0.8.17+commit.8df45f5f.Emscripten.clang"
  },
  "schemaVersion": "3.4.11",
  "updatedAt": "2022-12-02T03:35:26.455Z",
  "devdoc": {
    "kind": "dev",
    "methods": {},
    "version": 1
  },
  "userdoc": {
    "kind": "user",
    "methods": {},
    "version": 1
  }
}